{
  "contractName": "Cruds",
  "abi": [
    {
      "inputs": [
        {
          "internalType": "address",
          "name": "",
          "type": "address"
        }
      ],
      "name": "latestHashes",
      "outputs": [
        {
          "internalType": "string",
          "name": "",
          "type": "string"
        }
      ],
      "stateMutability": "view",
      "type": "function"
    },
    {
      "inputs": [
        {
          "internalType": "string",
          "name": "doc_cid",
          "type": "string"
        }
      ],
      "name": "addDoctor",
      "outputs": [],
      "stateMutability": "nonpayable",
      "type": "function"
    },
    {
      "inputs": [],
      "name": "getDoctor",
      "outputs": [
        {
          "internalType": "string[]",
          "name": "",
          "type": "string[]"
        }
      ],
      "stateMutability": "view",
      "type": "function"
    },
    {
      "inputs": [
        {
          "internalType": "string",
          "name": "patient_cid",
          "type": "string"
        }
      ],
      "name": "addPatient",
      "outputs": [],
      "stateMutability": "nonpayable",
      "type": "function"
    },
    {
      "inputs": [],
      "name": "getPatient",
      "outputs": [
        {
          "internalType": "string[]",
          "name": "",
          "type": "string[]"
        }
      ],
      "stateMutability": "view",
      "type": "function"
    },
    {
      "inputs": [
        {
          "internalType": "string",
          "name": "patientCid",
          "type": "string"
        },
        {
          "internalType": "string",
          "name": "doctorCid",
          "type": "string"
        }
      ],
      "name": "requestAccess",
      "outputs": [],
      "stateMutability": "nonpayable",
      "type": "function"
    },
    {
      "inputs": [
        {
          "internalType": "string",
          "name": "patientCid",
          "type": "string"
        },
        {
          "internalType": "string",
          "name": "doctorCid",
          "type": "string"
        },
        {
          "internalType": "bool",
          "name": "approve",
          "type": "bool"
        }
      ],
      "name": "respondToAccessRequest",
      "outputs": [],
      "stateMutability": "nonpayable",
      "type": "function"
    },
    {
      "inputs": [
        {
          "internalType": "address",
          "name": "doctorAddress",
          "type": "address"
        },
        {
          "internalType": "string",
          "name": "newHash",
          "type": "string"
        }
      ],
      "name": "updateLatestDoctorHash",
      "outputs": [],
      "stateMutability": "nonpayable",
      "type": "function"
    },
    {
      "inputs": [
        {
          "internalType": "address",
          "name": "doctorAddress",
          "type": "address"
        }
      ],
      "name": "getLatestDoctorHash",
      "outputs": [
        {
          "internalType": "string",
          "name": "",
          "type": "string"
        }
      ],
      "stateMutability": "view",
      "type": "function"
    },
    {
      "inputs": [
        {
          "internalType": "address",
          "name": "patientAddress",
          "type": "address"
        },
        {
          "internalType": "string",
          "name": "newHash",
          "type": "string"
        }
      ],
      "name": "updateLatestPatientHash",
      "outputs": [],
      "stateMutability": "nonpayable",
      "type": "function"
    },
    {
      "inputs": [
        {
          "internalType": "address",
          "name": "patientAddress",
          "type": "address"
        }
      ],
      "name": "getLatestPatientHash",
      "outputs": [
        {
          "internalType": "string",
          "name": "",
          "type": "string"
        }
      ],
      "stateMutability": "view",
      "type": "function"
    }
  ],
  "bytecode": "0x608060405234801561000f575f80fd5b506113ed8061001d5f395ff3fe608060405234801561000f575f80fd5b50600436106100a7575f3560e01c80637b0f9a361161006f5780637b0f9a361461014d578063913caaf21461016b578063a6bd93361461019b578063d5efa42a146101cb578063f520eeaa146101e7578063fb87cf9414610203576100a7565b80630be61700146100ab57806316157f6c146100c75780633aaa5920146100e357806340bfbaa814610101578063654ac6ca1461011d575b5f80fd5b6100c560048036038101906100c09190610b7c565b61021f565b005b6100e160048036038101906100dc9190610bc3565b610338565b005b6100eb6103d0565b6040516100f89190610d6e565b60405180910390f35b61011b60048036038101906101169190610dc3565b6104a3565b005b61013760048036038101906101329190610ea5565b61056c565b6040516101449190610f18565b60405180910390f35b610155610607565b6040516101629190610d6e565b60405180910390f35b61018560048036038101906101809190610ea5565b6106db565b6040516101929190610f18565b60405180910390f35b6101b560048036038101906101b09190610ea5565b6107a8565b6040516101c29190610f18565b60405180910390f35b6101e560048036038101906101e09190610f38565b610875565b005b61020160048036038101906101fc9190610f38565b6108c4565b005b61021d60048036038101906102189190610b7c565b610913565b005b5f5b5f80549050811015610302575f80828154811061024157610240610f92565b5b905f5260205f2001805461025490610fec565b80601f016020809104026020016040519081016040528092919081815260200182805461028090610fec565b80156102cb5780601f106102a2576101008083540402835291602001916102cb565b820191905f5260205f20905b8154815290600101906020018083116102ae57829003601f168201915b5050505050905082805190602001208180519060200120036102ee575050610335565b5080806102fa90611052565b915050610221565b505f81908060018154018082558091505060019003905f5260205f20015f9091909190915090816103339190611236565b505b50565b5f60405180604001604052808381526020015f151581525090505f8380519060200120905060025f8281526020019081526020015f2082908060018154018082558091505060019003905f5260205f2090600202015f909190919091505f820151815f0190816103a89190611236565b506020820151816001015f6101000a81548160ff021916908315150217905550505050505050565b60605f805480602002602001604051908101604052809291908181526020015f905b8282101561049a578382905f5260205f2001805461040f90610fec565b80601f016020809104026020016040519081016040528092919081815260200182805461043b90610fec565b80156104865780601f1061045d57610100808354040283529160200191610486565b820191905f5260205f20905b81548152906001019060200180831161046957829003601f168201915b5050505050815260200190600101906103f2565b50505050905090565b5f838051906020012090505f60025f8381526020019081526020015f2090505f5b81805490508110156105645784805190602001208282815481106104eb576104ea610f92565b5b905f5260205f2090600202015f0160405161050691906113a1565b604051809103902003610551578382828154811061052757610526610f92565b5b905f5260205f2090600202016001015f6101000a81548160ff021916908315150217905550610564565b808061055c90611052565b9150506104c4565b505050505050565b6003602052805f5260405f205f91509050805461058890610fec565b80601f01602080910402602001604051908101604052809291908181526020018280546105b490610fec565b80156105ff5780601f106105d6576101008083540402835291602001916105ff565b820191905f5260205f20905b8154815290600101906020018083116105e257829003601f168201915b505050505081565b60606001805480602002602001604051908101604052809291908181526020015f905b828210156106d2578382905f5260205f2001805461064790610fec565b80601f016020809104026020016040519081016040528092919081815260200182805461067390610fec565b80156106be5780601f10610695576101008083540402835291602001916106be565b820191905f5260205f20905b8154815290600101906020018083116106a157829003601f168201915b50505050508152602001906001019061062a565b50505050905090565b606060035f8373ffffffffffffffffffffffffffffffffffffffff1673ffffffffffffffffffffffffffffffffffffffff1681526020019081526020015f20805461072590610fec565b80601f016020809104026020016040519081016040528092919081815260200182805461075190610fec565b801561079c5780601f106107735761010080835404028352916020019161079c565b820191905f5260205f20905b81548152906001019060200180831161077f57829003601f168201915b50505050509050919050565b606060035f8373ffffffffffffffffffffffffffffffffffffffff1673ffffffffffffffffffffffffffffffffffffffff1681526020019081526020015f2080546107f290610fec565b80601f016020809104026020016040519081016040528092919081815260200182805461081e90610fec565b80156108695780601f1061084057610100808354040283529160200191610869565b820191905f5260205f20905b81548152906001019060200180831161084c57829003601f168201915b50505050509050919050565b8060035f8473ffffffffffffffffffffffffffffffffffffffff1673ffffffffffffffffffffffffffffffffffffffff1681526020019081526020015f2090816108bf9190611236565b505050565b8060035f8473ffffffffffffffffffffffffffffffffffffffff1673ffffffffffffffffffffffffffffffffffffffff1681526020019081526020015f20908161090e9190611236565b505050565b5f5b6001805490508110156109f8575f6001828154811061093757610936610f92565b5b905f5260205f2001805461094a90610fec565b80601f016020809104026020016040519081016040528092919081815260200182805461097690610fec565b80156109c15780601f10610998576101008083540402835291602001916109c1565b820191905f5260205f20905b8154815290600101906020018083116109a457829003601f168201915b5050505050905082805190602001208180519060200120036109e4575050610a2c565b5080806109f090611052565b915050610915565b50600181908060018154018082558091505060019003905f5260205f20015f909190919091509081610a2a9190611236565b505b50565b5f604051905090565b5f80fd5b5f80fd5b5f80fd5b5f80fd5b5f601f19601f8301169050919050565b7f4e487b71000000000000000000000000000000000000000000000000000000005f52604160045260245ffd5b610a8e82610a48565b810181811067ffffffffffffffff82111715610aad57610aac610a58565b5b80604052505050565b5f610abf610a2f565b9050610acb8282610a85565b919050565b5f67ffffffffffffffff821115610aea57610ae9610a58565b5b610af382610a48565b9050602081019050919050565b828183375f83830152505050565b5f610b20610b1b84610ad0565b610ab6565b905082815260208101848484011115610b3c57610b3b610a44565b5b610b47848285610b00565b509392505050565b5f82601f830112610b6357610b62610a40565b5b8135610b73848260208601610b0e565b91505092915050565b5f60208284031215610b9157610b90610a38565b5b5f82013567ffffffffffffffff811115610bae57610bad610a3c565b5b610bba84828501610b4f565b91505092915050565b5f8060408385031215610bd957610bd8610a38565b5b5f83013567ffffffffffffffff811115610bf657610bf5610a3c565b5b610c0285828601610b4f565b925050602083013567ffffffffffffffff811115610c2357610c22610a3c565b5b610c2f85828601610b4f565b9150509250929050565b5f81519050919050565b5f82825260208201905092915050565b5f819050602082019050919050565b5f81519050919050565b5f82825260208201905092915050565b5f5b83811015610c99578082015181840152602081019050610c7e565b5f8484015250505050565b5f610cae82610c62565b610cb88185610c6c565b9350610cc8818560208601610c7c565b610cd181610a48565b840191505092915050565b5f610ce78383610ca4565b905092915050565b5f602082019050919050565b5f610d0582610c39565b610d0f8185610c43565b935083602082028501610d2185610c53565b805f5b85811015610d5c5784840389528151610d3d8582610cdc565b9450610d4883610cef565b925060208a01995050600181019050610d24565b50829750879550505050505092915050565b5f6020820190508181035f830152610d868184610cfb565b905092915050565b5f8115159050919050565b610da281610d8e565b8114610dac575f80fd5b50565b5f81359050610dbd81610d99565b92915050565b5f805f60608486031215610dda57610dd9610a38565b5b5f84013567ffffffffffffffff811115610df757610df6610a3c565b5b610e0386828701610b4f565b935050602084013567ffffffffffffffff811115610e2457610e23610a3c565b5b610e3086828701610b4f565b9250506040610e4186828701610daf565b9150509250925092565b5f73ffffffffffffffffffffffffffffffffffffffff82169050919050565b5f610e7482610e4b565b9050919050565b610e8481610e6a565b8114610e8e575f80fd5b50565b5f81359050610e9f81610e7b565b92915050565b5f60208284031215610eba57610eb9610a38565b5b5f610ec784828501610e91565b91505092915050565b5f82825260208201905092915050565b5f610eea82610c62565b610ef48185610ed0565b9350610f04818560208601610c7c565b610f0d81610a48565b840191505092915050565b5f6020820190508181035f830152610f308184610ee0565b905092915050565b5f8060408385031215610f4e57610f4d610a38565b5b5f610f5b85828601610e91565b925050602083013567ffffffffffffffff811115610f7c57610f7b610a3c565b5b610f8885828601610b4f565b9150509250929050565b7f4e487b71000000000000000000000000000000000000000000000000000000005f52603260045260245ffd5b7f4e487b71000000000000000000000000000000000000000000000000000000005f52602260045260245ffd5b5f600282049050600182168061100357607f821691505b60208210810361101657611015610fbf565b5b50919050565b7f4e487b71000000000000000000000000000000000000000000000000000000005f52601160045260245ffd5b5f819050919050565b5f61105c82611049565b91507fffffffffffffffffffffffffffffffffffffffffffffffffffffffffffffffff820361108e5761108d61101c565b5b600182019050919050565b5f819050815f5260205f209050919050565b5f6020601f8301049050919050565b5f82821b905092915050565b5f600883026110f57fffffffffffffffffffffffffffffffffffffffffffffffffffffffffffffffff826110ba565b6110ff86836110ba565b95508019841693508086168417925050509392505050565b5f819050919050565b5f61113a61113561113084611049565b611117565b611049565b9050919050565b5f819050919050565b61115383611120565b61116761115f82611141565b8484546110c6565b825550505050565b5f90565b61117b61116f565b61118681848461114a565b505050565b5b818110156111a95761119e5f82611173565b60018101905061118c565b5050565b601f8211156111ee576111bf81611099565b6111c8846110ab565b810160208510156111d7578190505b6111eb6111e3856110ab565b83018261118b565b50505b505050565b5f82821c905092915050565b5f61120e5f19846008026111f3565b1980831691505092915050565b5f61122683836111ff565b9150826002028217905092915050565b61123f82610c62565b67ffffffffffffffff81111561125857611257610a58565b5b6112628254610fec565b61126d8282856111ad565b5f60209050601f83116001811461129e575f841561128c578287015190505b611296858261121b565b8655506112fd565b601f1984166112ac86611099565b5f5b828110156112d3578489015182556001820191506020850194506020810190506112ae565b868310156112f057848901516112ec601f8916826111ff565b8355505b6001600288020188555050505b505050505050565b5f81905092915050565b5f819050815f5260205f209050919050565b5f815461132d81610fec565b6113378186611305565b9450600182165f8114611351576001811461136657611398565b60ff1983168652811515820286019350611398565b61136f8561130f565b5f5b8381101561139057815481890152600182019150602081019050611371565b838801955050505b50505092915050565b5f6113ac8284611321565b91508190509291505056fea26469706673582212207f984bdc5118dcab47e73e138631b83b431c21910e60697793d6e7cf5041a83e64736f6c63430008140033",
  "immutableReferences": {},
  "source": "// SPDX-License-Identifier: MIT\r\npragma solidity ^0.8.20;\r\n\r\n\r\ncontract Cruds {\r\n    string[] doctors;\r\n    string[] patients;\r\n\r\n    function addDoctor(string memory doc_cid) public {\r\n        for (uint i = 0; i < doctors.length; i++) {\r\n            string memory x = doctors[i];\r\n            if (keccak256(bytes(x)) == keccak256(bytes(doc_cid))) return;\r\n        }\r\n        doctors.push(doc_cid);\r\n    }\r\n\r\n    function getDoctor() public view returns (string[] memory) {\r\n        return doctors;\r\n    }\r\n\r\n    function addPatient(string memory patient_cid) public {\r\n        for (uint i = 0; i < patients.length; i++) {\r\n            string memory x = patients[i];\r\n            if (keccak256(bytes(x)) == keccak256(bytes(patient_cid))) return;\r\n        }\r\n        patients.push(patient_cid);\r\n    }\r\n\r\n    function getPatient() public view returns (string[] memory) {\r\n        return patients;\r\n    }\r\n    struct AccessRequest {\r\n        string doctorCid; // Identifier of the doctor requesting access\r\n        bool approved; // Whether the patient has approved this request\r\n    }\r\n\r\n    // Maps patient CIDs to their access requests (now using bytes32)\r\n    mapping(bytes32 => AccessRequest[]) private accessRequests;\r\n\r\n    function requestAccess(\r\n        string memory patientCid,\r\n        string memory doctorCid\r\n    ) public {\r\n        AccessRequest memory newRequest = AccessRequest(doctorCid, false);\r\n        bytes32 key = keccak256(bytes(patientCid));\r\n        accessRequests[key].push(newRequest);\r\n    }\r\n\r\n    function respondToAccessRequest(\r\n        string memory patientCid,\r\n        string memory doctorCid,\r\n        bool approve\r\n    ) public {\r\n         \r\n        bytes32 key = keccak256(bytes(patientCid));\r\n        AccessRequest[] storage requests = accessRequests[key];\r\n        for (uint i = 0; i < requests.length; i++) {\r\n            if (\r\n                keccak256(bytes(requests[i].doctorCid)) ==\r\n                keccak256(bytes(doctorCid))\r\n            ) {\r\n                requests[i].approved = approve;\r\n                break;\r\n            }\r\n        }\r\n    }\r\n\r\n    // Maps an Ethereum address to the latest IPFS hash of the doctor's or patient's data\r\n    mapping(address => string) public latestHashes;\r\n\r\n    // Updates the latest hash for a doctor's data\r\n    function updateLatestDoctorHash(\r\n        address doctorAddress,\r\n        string memory newHash\r\n    ) public {\r\n        latestHashes[doctorAddress] = newHash;\r\n    }\r\n\r\n    // Retrieves the latest hash for a doctor's data\r\n    function getLatestDoctorHash(\r\n        address doctorAddress\r\n    ) public view returns (string memory) {\r\n        return latestHashes[doctorAddress];\r\n    }\r\n\r\n    // Updates the latest hash for a patient's data\r\n    function updateLatestPatientHash(\r\n        address patientAddress,\r\n        string memory newHash\r\n    ) public {\r\n        latestHashes[patientAddress] = newHash;\r\n    }\r\n\r\n    // Retrieves the latest hash for a patient's data\r\n    function getLatestPatientHash(\r\n        address patientAddress\r\n    ) public view returns (string memory) {\r\n        return latestHashes[patientAddress];\r\n    }\r\n}\r\n",
  "sourcePath": "E:\\web3_Helthcare_Project\\Blockchain-based-healthcare-data-system-with-disease-prediction\\backend\\contracts\\Cruds.sol",
  "compiler": {
    "name": "solc",
    "version": "0.8.20+commit.a1b79de6.Emscripten.clang"
  },
  "schemaVersion": "3.4.16",
  "updatedAt": "2025-04-17T05:20:49.189Z",
  "devdoc": {
    "kind": "dev",
    "methods": {},
    "version": 1
  },
  "userdoc": {
    "kind": "user",
    "methods": {},
    "version": 1
  }
}